:020000040000FA
:100000000C945D000C9485000C9485000C94850084
:100010000C9485000C9485000C9485000C9485004C
:100020000C9485000C9485000C9485000C9485003C
:100030000C9485000C9485000C9485000C9485002C
:100040000C94BD020C9485000C942D030C940703B2
:100050000C9485000C9485000C9485000C9485000C
:100060000C9485000C9485000000000024002700FB
:100070002A0000000000250028002B0004040404CE
:100080000404040402020202020203030303030342
:10009000010204081020408001020408102001021F
:1000A00004081020000000080002010000030407FB
:1000B0000000000000000000AA0411241FBECFEFC2
:1000C000D8E0DEBFCDBF11E0A0E0B1E0E4E7FAE0A8
:1000D00002C005900D92AC39B107D9F722E0ACE926
:1000E000B1E001C01D92A734B207E1F710E0CDE501
:1000F000D0E004C02197FE010E943205CC35D10723
:10010000C9F70E945F030C9438050C940000EBEAD9
:10011000F0E02491E7E9F0E09491E3E8F0E0E49185
:10012000EE23C9F0222339F0233001F1A8F4213065
:1001300019F1223029F1F0E0EE0FFF1FEE58FF4FCA
:10014000A591B4912FB7F894EC91811126C09095A8
:100150009E239C932FBF08952730A9F02830C9F023
:10016000243049F7209180002F7D03C0209180002A
:100170002F7720938000DFCF24B52F7724BDDBCFEE
:1001800024B52F7DFBCF2091B0002F772093B000B6
:10019000D2CF2091B0002F7DF9CF9E2BDACF3FB781
:1001A000F8948091A6019091A701A091A801B09127
:1001B000A90126B5A89B05C02F3F19F00196A11DE6
:1001C000B11D3FBFBA2FA92F982F8827BC01CD01A1
:1001D000620F711D811D911D42E0660F771F881F00
:1001E000991F4A95D1F708958F929F92AF92BF922F
:1001F000CF92DF92EF92FF924B015C010E94CF0001
:100200006B017C010E94CF006C197D098E099F094A
:10021000683E734081059105A8F321E0821A910898
:10022000A108B10888EEC80E83E0D81EE11CF11CBD
:1002300081149104A104B10429F7FF90EF90DF909D
:10024000CF90BF90AF909F908F900895AF92BF9244
:10025000CF92DF92EF92FF920F931F93CF93DF9392
:100260006C017B018B01040F151FEB015E01AE18C1
:10027000BF08C017D10759F06991D601ED91FC91E3
:100280000190F081E02DC6010995892B79F7C50110
:10029000DF91CF911F910F91FF90EF90DF90CF9062
:1002A000BF90AF900895FC01538D448D252F30E011
:1002B000842F90E0821B930B541710F0CF96089573
:1002C00001970895FC01918D828D981761F0A28DA0
:1002D000AE0FBF2FB11D5D968C91928D9F5F9F7366
:1002E000928F90E008958FEF9FEF0895FC01918D1C
:1002F000828D981731F0828DE80FF11D858D90E089
:1003000008958FEF9FEF0895FC01918D228D892F25
:1003100090E0805C9F4F821B91098F73992708950D
:100320008AEA91E00E94840121E0892B09F420E00F
:10033000822F089580E090E0892B29F00E9490019F
:1003400081110C9400000895FC01A48DA80FB92F11
:10035000B11DA35ABF4F2C91848D90E001968F73ED
:100360009927848FA689B7892C93A089B1898C910C
:10037000837080648C93938D848D981306C002885B
:10038000F389E02D80818F7D80830895EF92FF9225
:100390000F931F93CF93DF93EC0181E0888F9B8DA8
:1003A0008C8D98131AC0E889F989808185FF15C062
:1003B0009FB7F894EE89FF896083E889F989808185
:1003C0008370806480839FBF81E090E0DF91CF9154
:1003D0001F910F91FF90EF900895F62E0B8D10E076
:1003E0000F5F1F4F0F731127E02E8C8D8E110CC0E5
:1003F0000FB607FCFACFE889F989808185FFF5CF30
:10040000CE010E94A401F1CFEB8DEC0FFD2FF11D69
:10041000E35AFF4FF0829FB7F8940B8FEA89FB896C
:1004200080818062CFCFCF93DF93EC01888D8823CA
:10043000B9F0AA89BB89E889F9898C9185FD03C047
:10044000808186FD0DC00FB607FCF7CF8C9185FF2C
:10045000F2CF808185FFEDCFCE010E94A401E9CFCC
:10046000DF91CF910895FC0101900020E9F73197C9
:10047000AF01481B590BBC018AEA91E00C9426019C
:100480008F929F92AF92BF92CF92DF92EF92FF92A4
:100490000F931F93CF93DF93CDB7DEB7A1970FB61E
:1004A000F894DEBF0FBECDBF6C01990FEE08FF08B8
:1004B000F7FE41C06DE28AEA91E00E94C6018C011C
:1004C00022273327A9012C193D094E095F0919A2DA
:1004D000CE0181967C019AE0892E912CA12CB12C21
:1004E000CA01B901A50194010E940105605DF701EF
:1004F00062937F01211531054105510589F790E08F
:1005000080E0309719F0CF010E943302800F911FD5
:10051000A1960FB6F894DEBF0FBECDBFDF91CF918D
:100520001F910F91FF90EF90DF90CF90BF90AF9011
:100530009F908F900895A701960119A28E010F5DDB
:100540001F4F8AE0C82ED12CE12CF12CCA01B90131
:10055000A70196010E940105605DF80162938F0179
:10056000211531054105510589F790E080E030976C
:1005700079F2CF010E943302CBCF1F920F920FB6B8
:100580000F9211242F933F938F939F93AF93BF9319
:100590008091A2019091A301A091A401B091A50125
:1005A0003091A10123E0230F2D3758F50196A11DAD
:1005B000B11D2093A1018093A2019093A301A09368
:1005C000A401B093A5018091A6019091A701A091EB
:1005D000A801B091A9010196A11DB11D8093A601AA
:1005E0009093A701A093A801B093A901BF91AF91E7
:1005F0009F918F913F912F910F900FBE0F901F9061
:10060000189526E8230F0296A11DB11DD2CF1F9287
:100610000F920FB60F9211242F933F934F935F9336
:100620006F937F938F939F93AF93BF93EF93FF93BA
:100630008AEA91E00E94A401FF91EF91BF91AF91EE
:100640009F918F917F916F915F914F913F912F91EA
:100650000F900FBE0F901F9018951F920F920FB61C
:100660000F9211242F938F939F93EF93FF93E09119
:10067000BA01F091BB018081E091C001F091C1010C
:1006800082FD1BC090818091C3018F5F8F73209189
:10069000C401821741F0E091C301F0E0E655FE4F3E
:1006A000958F8093C301FF91EF919F918F912F912F
:1006B0000F900FBE0F901F9018958081F4CF789403
:1006C00084B5826084BD84B5816084BD85B5826057
:1006D00085BD85B5816085BD80916E008160809308
:1006E0006E00109281008091810082608093810071
:1006F0008091810081608093810080918000816081
:10070000809380008091B10084608093B1008091DB
:10071000B00081608093B00080917A008460809303
:100720007A0080917A00826080937A0080917A00CA
:10073000816080937A0080917A00806880937A004B
:100740001092C100E091BA01F091BB0182E0808378
:10075000E091B601F091B7011082E091B801F091FB
:10076000B9018FEC80831092C201E091BE01F0913B
:10077000BF0186E08083E091BC01F091BD018081E2
:1007800080618083E091BC01F091BD01808188602F
:100790008083E091BC01F091BD01808180688083FD
:1007A000E091BC01F091BD0180818F7D8083E7E9FC
:1007B000F0E02491E3E8F0E08491882399F090E060
:1007C000880F991FFC01E859FF4FA591B491FC01D6
:1007D000EE58FF4F859194918FB7F894EC91E22BEE
:1007E000EC938FBF81E00E9487008DE191E00E9431
:1007F00033028DE391E00E94330268EE73E080E003
:1008000090E00E94F40010E480E9C82EDD24D39427
:10081000E12CF12CC0E0D0E001E010937C0080914D
:100820007A00806480937A0080917A0086FDFCCF04
:1008300020917800309179003093A00120939F019E
:10084000032E000C440B550B2C5231404109510929
:10085000A4E6B0E00E94F604A70196010E94D70426
:10086000C90137FF59C010929E0110929D018091DD
:100870009C01811104C00E94870000939C0180E4C8
:1008800091E00E94330282E491E00E943302809161
:100890009D0190919E010E9440028FE491E00E9490
:1008A000330280919F019091A0010E9440028FE548
:1008B00091E00E94330280919C01811148C082E145
:1008C00091E00E94330281E791E00E9433028EE1C1
:1008D00090E00E94400285E891E00E9433028CE3A0
:1008E00090E00E9440028AE991E00E9433028DE389
:1008F00091E00E94330260ED77E080E090E00E949A
:10090000F400209709F489CF0E949001882309F40C
:1009100084CF0E94000081CF2536310514F024E6F3
:1009200030E030939E0120939D018E3191050CF4AF
:100930009ECFCD970CF4A3CF80919C01882309F41E
:100940009ECF81E00E94870010929C0198CF88E1A1
:1009500091E0B7CFEAEAF1E01382128288EE93E0E9
:10096000A0E0B0E084839583A683B78384E091E020
:100970009183808385EC90E09587848784EC90E078
:100980009787868780EC90E0918B808B81EC90E05C
:10099000938B828B82EC90E0958B848B86EC90E03D
:1009A000978B868B118E128E138E148E0895052EC2
:1009B00097FB1EF400940E94EE0457FD07D00E949E
:1009C000010507FC03D04EF40C94EE0450954095BD
:1009D000309521953F4F4F4F5F4F089590958095EB
:1009E000709561957F4F8F4F9F4F08950E9423050B
:1009F000A59F900DB49F900DA49F800D911D112473
:100A00000895A1E21A2EAA1BBB1BFD010DC0AA1F4F
:100A1000BB1FEE1FFF1FA217B307E407F50720F067
:100A2000A21BB30BE40BF50B661F771F881F991FE2
:100A30001A9469F760957095809590959B01AC012B
:100A4000BD01CF010895A29FB001B39FC001A39F34
:100A5000700D811D1124911DB29F700D811D1124F7
:100A6000911D0895EE0FFF1F0590F491E02D09945C
:100A7000F894FFCF00000000C601260153011302C5
:100A800084016201760166616C736500747275653C
:100A900000536D6172742049727269676174696F85
:100AA0006E2053797374656D20537461727465643C
:100AB000000D0A007B00226D6F69737475726522E8
:100AC0003A20002C20227261775F76616C75652276
:100AD0003A20002C202270756D705F7374617475FC
:100AE00073223A20002C20227468726573686F6C40
:100AF000645F6C6F77223A20002C20227468726544
:100B000073686F6C645F68696768223A20007D00D3
:107E0000112484B714BE81FFF0D085E080938100F7
:107E100082E08093C00088E18093C10086E0809377
:107E2000C20080E18093C4008EE0C9D0259A86E02C
:107E300020E33CEF91E0309385002093840096BBD3
:107E4000B09BFECF1D9AA8958150A9F7CC24DD24C4
:107E500088248394B5E0AB2EA1E19A2EF3E0BF2EE7
:107E6000A2D0813461F49FD0082FAFD0023811F036
:107E7000013811F484E001C083E08DD089C08234E0
:107E800011F484E103C0853419F485E0A6D080C0E4
:107E9000853579F488D0E82EFF2485D0082F10E0AE
:107EA000102F00270E291F29000F111F8ED06801E7
:107EB0006FC0863521F484E090D080E0DECF843638
:107EC00009F040C070D06FD0082F6DD080E0C81688
:107ED00080E7D80618F4F601B7BEE895C0E0D1E017
:107EE00062D089930C17E1F7F0E0CF16F0E7DF06D8
:107EF00018F0F601B7BEE89568D007B600FCFDCFD4
:107F0000A601A0E0B1E02C9130E011968C91119780
:107F100090E0982F8827822B932B1296FA010C0160
:107F200087BEE89511244E5F5F4FF1E0A038BF0790
:107F300051F7F601A7BEE89507B600FCFDCF97BE46
:107F4000E89526C08437B1F42ED02DD0F82E2BD052
:107F50003CD0F601EF2C8F010F5F1F4F84911BD097
:107F6000EA94F801C1F70894C11CD11CFA94CF0C13
:107F7000D11C0EC0853739F428D08EE10CD085E9AC
:107F80000AD08FE07ACF813511F488E018D01DD067
:107F900080E101D065CF982F8091C00085FFFCCF94
:107FA0009093C60008958091C00087FFFCCF809118
:107FB000C00084FD01C0A8958091C6000895E0E648
:107FC000F0E098E1908380830895EDDF803219F02E
:107FD00088E0F5DFFFCF84E1DECF1F93182FE3DFCA
:107FE0001150E9F7F2DF1F91089580E0E8DFEE27F6
:047FF000FF270994CA
:027FFE00040479
:00000001FF
